:020000040000FA
:100000008063002095020000C5020000C7020000C6
:10001000C9020000CB020000CD0200000000000079
:10002000000000000000000000000000CF020000FF
:10003000D102000000000000D3020000D502000041
:10004000D1250000E1250000F12500000126000077
:100050001126000021260000312600004126000064
:100060005126000061260000712600008126000054
:1000700091260000A1260000B1260000C126000044
:10008000D1260000E1260000F12600000127000033
:100090001127000021270000312700004127000020
:1000A0005127000061270000712700008127000010
:1000B00091270000A1270000B1270000C127000000
:1000C000D1270000E1270000F127000001280000EF
:1000D00011280000212800003128000041280000DC
:1000E00051280000612800007128000081280000CC
:1000F00091280000A1280000B1280000C1280000BC
:10010000D1280000E1280000F128000001290000AA
:100110001129000021290000312900004129000097
:100120005129000061290000712900008129000087
:1001300091290000A1290000B1290000C129000077
:10014000D1290000E1290000F1290000012A000066
:10015000112A0000212A0000312A0000412A000053
:10016000512A0000612A0000712A0000812A000043
:10017000912A0000A12A0000B12A0000C12A000033
:10018000D12A0000E12A0000F12A0000012B000022
:10019000112B0000212B0000312B0000412B00000F
:1001A000512B0000612B0000712B0000812B0000FF
:1001B000912B0000A12B0000B12B0000C12B0000EF
:1001C000D12B0000E12B0000F12B0000012C0000DE
:1001D000112C0000212C0000312C0000412C0000CB
:1001E000512C0000612C0000712C0000812C0000BB
:1001F000912C0000A12C0000B12C0000C12C0000AB
:10020000D12C0000E12C0000F12C0000012D000099
:10021000112D0000212D0000312D0000412D000086
:10022000512D0000612D0000712D0000812D000076
:10023000912D0000A12D0000B12D0000C12D000066
:10024000D7020000D7020000D7020000D70200004A
:10025000D7020000D7020000D7020000D70200003A
:10026000D7020000D7020000D7020000D70200002A
:10027000D7020000D7020000D7020000D70200001A
:10028000DFF80CD000F0E0F900480047CB06000092
:100290008063002010484FF0770101600F484FF055
:1002A000770101600E484FF4885101600A484FF011
:1002B0007601016009484FF07601016009488047E6
:1002C00009480047FEE7FEE7FEE7FEE7FEE7FEE738
:1002D000FEE7FEE7FEE7FEE7040805400C080540E0
:1002E00000080540F1420000810200002DE9F05FA6
:1002F0000546002092469B46884606468146402495
:100300001BE0284641464746224600F0F8F853468F
:100310005A46C01A914110D311461846224600F0A1
:100320005DF82D1A67EB01084F4622460120002197
:1003300000F054F817EB00094E41201EA4F101040F
:10034000DFDC484631462A464346BDE8F09F40EA96
:1003500001039B0703D009E008C9121F08C0042A43
:10036000FAD203E011F8013B00F8013B521EF9D22A
:1003700070470EB540F2334102910021CDE90011E2
:100380000A460B4600F011F903B000BD0EB540F26D
:10039000334202920022CDE90022134600F005F913
:1003A00003B000BD01F0004330B421F0004150EA39
:1003B000010206D00A0DA2F56072C1F31301002AF2
:1003C00002DC30BC00207047440F44EAC104C10085
:1003D000E01830BC00EBC25000F0A1B8202A04DBCA
:1003E000203A00FA02F1002070479140C2F1200348
:1003F00020FA03F31943904070470146086970479B
:10040000BFFFDFFFFFFEFFFFFFFFFFFFFFFFFFFF5D
:10041000FFFFFFFFFFFFFFFFFFFFFFFFFFFFFFFFEC
:100420002DE9F04D81EA030404F0004B21F0004572
:1004300014464FF0000A23F0004150EA050220D094
:1004400054EA01021DD0C5F30A570246C5F313034F
:10045000C1F31300C1F30A5640F4801543F480132E
:10046000A7EB0608101BD64608F2FD3873EB050013
:1004700002D308F1010801E092185B41B8F1000FC6
:1004800003DA00200146BDE8F08D00204FF4801112
:10049000064684460EE0171B73EB050705D3121BB7
:1004A00063EB050306434CEA010C49084FEA3000B0
:1004B00092185B4150EA0107EDD152EA030012D0D5
:1004C00082EA040083EA0501084305D0101BAB4112
:1004D00006D20122002306E000224FF0004302E092
:1004E0006FF0010253101AEB06004CEB085110EBB1
:1004F0000A0041EB0B01BDE8F04D00F047B8202A9F
:1005000004DB203A21FA02F00021704721FA02F3BD
:10051000D040C2F12002914008431946704700299B
:10052000A8BF7047401C490008BF20F00100704779
:1005300010B4B0FA80FC00FA0CF050EA010404BFD9
:1005400010BC704749B1CCF1200421FA04F411FA2F
:100550000CF118BF012121430843A3EB0C01CB1D73
:100560004FEA00614FEA102042BF002010BC7047E4
:1005700000EBC35010440029A4BF10BC7047401CBE
:10058000490008BF20F0010010BC704710B5141ED0
:1005900073F1000408DA401C41F1000192185B413C
:1005A0001A4301D120F0010010BD2DE9F04D924613
:1005B0009B4611B1B1FA81F202E0B0FA80F220322A
:1005C0009046FFF70BFF04460F4640EA0A0041EA57
:1005D0000B0153465A46084313D0114653EA010013
:1005E00019D0C8F140025046FFF789FF05460E4674
:1005F000504659464246FFF7F1FE084305D0012018
:1006000004E020463946BDE8F08D0020054346EA67
:10061000E0762C4337430A986305E40AA0EB080010
:100620000022FD0A44EA47540A3002D50020014660
:10063000E9E7010510196941DDE90845001969413B
:10064000BDE8F04DA2E70000064C074D06E0E0686B
:1006500040F0010394E8070098471034AC42F6D309
:10066000FFF712FE0C5E00002C5E000070B58D18C6
:1006700010F8014B14F0030201D110F8012B2311E3
:1006800006D110F8013B03E010F8016B01F8016B93
:10069000521EF9D1ABB110F8012B04F00C048A1AE8
:1006A0000C2C03D0A2EB84129B1C08E010F8014B29
:1006B000A2EB0422F8E712F8014B01F8014B5B1E94
:1006C000F9D5A942D4D3002070BD10B503F0AAFD1E
:1006D00005F0ACF8002010BD70B504460D4600BF13
:1006E0002D4884424DD0001D84424AD0001D8442D2
:1006F00047D0001D844244D0001D844241D0001DDB
:1007000084423ED0001D84423BD0001D844238D03C
:10071000001D844235D0001D844232D0001D844229
:100720002FD0001D84422CD0001D844229D0001DF2
:10073000844226D0001D844223D0001D844220D054
:10074000001D84421DD0001D84421AD0001D844229
:1007500017D0001D844214D0001D844211D0001D0A
:1007600084420ED0001D84420BD0001D844208D06C
:10077000001D844205D0001D844202D0001D844229
:1007800000D103E09C2105A000F0C4FF00BF206859
:1007900065F30800206070BD040801402E2E5C2E19
:1007A0002E5C2E2E5C2E2E5C2E2E5C2E2E5C647209
:1007B00069766572735C686333325F6C6C5F647218
:1007C000697665725C7372635C686333325F6C6C0C
:1007D0005F616F732E6300001FB502A800F0FAFD81
:1007E000684600F0F9FC2C492C4800F01EFD002062
:1007F0008DF80A0030208DF8090000208DF80800DF
:1008000005208DF80C0002A800F03AFD00200190B0
:10081000019820F01F00401C01903121019861F3E4
:1008200010200190019820F0704000F1805001905C
:10083000019820F0706000F180700190019820F420
:10084000700000F58010019000208DF800000198E4
:1008500020F0800080300190684600F063FB00BF0C
:10086000202000F051FA0128FAD10022114604207C
:1008700003F006F8012211460B2003F001F8502086
:1008800001F0B0F94FF4404001F08AFD02F02CFB7A
:10089000052000F0D4FC1FBD1022110077777707E8
:1008A00010B50848006840F400600649086000BFC1
:1008B0000221012001F022FC0028F9D0022001F0E1
:1008C000F5F910BD2C80FF1F10B500BF104800685F
:1008D00000F0070004460F49486801F003FA0128B8
:1008E00014D100BF0B4A5188107801F007FC38B9C9
:1008F0000120A04008490968084307490860F1E75A
:100900000449486801F0D2F900BF00BF10BD0000E3
:10091000080C0540185D00002C80FF1F10B500BFBB
:100920001048006800F0070004460F49486901F0CC
:10093000D9F9012814D100BF0B4A518A107C01F06B
:10094000DDFB38B91020A040084909680843074971
:100950000860F1E70449486901F0A8F900BF00BF49
:1009600010BD0000080C0540185D00002C80FF1F22
:1009700010B500BF1148006800F007000446104998
:10098000486A01F0AFF9012816D100BF0C4A518C1A
:1009900092F8200001F0B2FB40B94FF48070A04003
:1009A00008490968084307490860EFE70449486AAD
:1009B00001F07CF900BF00BF10BD0000080C05402D
:1009C000185D00002C80FF1F00B585B0684601F05F
:1009D00035FD0220ADF802006A464102012001F017
:1009E00089FA6A464FF40041002001F083FA05B00D
:1009F00000BD000070B5054600240FE045FA04F084
:100A000000F0010040B1074A02EB84025188054A18
:100A100012F8240001F07AFC601CC4B2042CEDD35F
:100A200070BD0000FC5C000010B50821002001F042
:100A3000B1FB10BD10B5024802F006FB10BD00006E
:100A400000C0014010B50821002001F05FFC10BD7E
:100A500000B593B00EA801F0F1FC2020ADF83E00E7
:100A60000EAA0821002001F045FA0EAA0421002058
:100A700001F040FA0EAA0221002001F03BFA022008
:100A8000ADF83A000EAA0821002001F033FA2B221B
:100A90000421002001F0C8FB28220221002001F0DF
:100AA000C3FB29220121002001F0BEFB03A802F0B4
:100AB00008FE684602F00EFB0121080401F086F9E9
:100AC000144802F0C1FA012003900020049008208D
:100AD00005900020069007900120089004200990BE
:100AE00000020A9000200B9003A90A4802F0F8FBCC
:100AF0004FF0E04000900011019000200290694604
:100B0000044802F0F1FA0121024802F049FA13B058
:100B100000BD000000C0014070B504460D46094804
:100B2000006AC0F3026108480068C8404FF47A7157
:100B3000B0FBF1F633462A462146044802F0ACFDEC
:100B400070BD0000004005400080FF1F00C0014054
:100B500070B504460D460948006AC0F302610848B2
:100B60000068C8404FF47A71B0FBF1F633462A466C
:100B70002146044802F0BCFD70BD00000040054065
:100B80000080FF1F00C0014010B5024804F06AFD5C
:100B900010BD00003080FF1F0146D1E903029042E2
:100BA00001D1012070470020FCE710B503466FF02B
:100BB000020043B139B132B1196000245C609C601D
:100BC000DA601A61002010BD2DE9F04104460E469E
:100BD00017460025002C3CD0002E3AD0002F38D0EC
:100BE000204600F039F80546BD4200D33D46A068D6
:100BF0002844E168884207D8A268206881182A46FC
:100C00003046FFF7A4FB11E0D4E90210A0EB010885
:100C1000A2682068811842463046FFF798FBA5EB92
:100C2000080206EB08002168FFF791FB72B6206905
:100C300028442061A0682844A060D4E902018842C9
:100C400006D3D4E90201B0FBF1F201FB1200A0606F
:100C500062B62846BDE8F0810146D1E90302801A58
:100C600070472DE9F0410446884616460025002CC1
:100C70003BD0B8F1000F38D0002E36D02046FFF719
:100C8000BCFB0546AE4200D8354660682844E168A2
:100C9000884207D8D4E9001288182A464146FFF74F
:100CA00056FB0FE06168E068471AD4E90012881823
:100CB0003A464146FFF74BFBEA1B08EB0701206869
:100CC000FFF745FB72B62069401B2061606828442D
:100CD0006060E1686068884206D3E1686068B0FBE4
:100CE000F1F201FB1200606062B62846BDE8F081B7
:100CF00008B50021009102E00099491C009100997B
:100D00008142F9D308BD000010B5044600BF24B1EC
:100D100044F06900692800D104E040F2BD5106A00A
:100D200000F0F8FC00BF13480078204008B1012013
:100D300010BD0020FCE700002E2E2F2E2E2F2E2E71
:100D40002F2E2E2F2E2E2F2E2E2F64726976657247
:100D5000732F686333325F6C6C5F6472697665729F
:100D60002F7372632F686333325F6C6C5F636C6BDD
:100D70002E6300003C40054070B50446002500BFCE
:100D80000CB1012C00D104E040F23F311EA000F074
:100D9000C1FC00BF00BF2B48008800F0010000B17B
:100DA00004E04FF4507118A000F0B4FC00BFF4B997
:100DB0002548007800F0070010B96FF0050520E025
:100DC0002148DA300068C0F3C01058B11E48001D39
:100DD000007810B96FF0050513E001201A491031B1
:100DE00008700EE0012018491031087009E0002059
:100DF0001549103108704FF48051012000F027FA96
:100E00000546284670BD00002E2E2F2E2E2F2E2E8A
:100E10002F2E2E2F2E2E2F2E2E2F64726976657276
:100E2000732F686333325F6C6C5F647269766572CE
:100E30002F7372632F686333325F6C6C5F636C6B0C
:100E40002E630000FE4305402640054070B5044671
:100E5000002500BF0CB1012C00D104E04FF4A261C9
:100E60001FA000F057FC00BF00BF2C48008800F016
:100E7000010000B104E040F2115119A000F04AFC59
:100E800000BF64B92648007800F00700052801D1AA
:100E9000C54322E001202249091D08701DE02048B9
:100EA000DA300068C0F3C01030B94FF48051082028
:100EB00000F0CDF9054605E04FF48051012000F027
:100EC000C6F905464DB900201549091D08704FF4B3
:100ED0008051202000F0BBF90546284670BD000077
:100EE0002E2E2F2E2E2F2E2E2F2E2E2F2E2E2F2E1D
:100EF0002E2F647269766572732F686333325F6C6C
:100F00006C5F6472697665722F7372632F686333E6
:100F1000325F6C6C5F636C6B2E630000FE430540B8
:100F2000264005402DE9F041044614B96FF0020651
:100F30001FE100BF2079C0F3C01018B12079C0F3C1
:100F4000C01000B104E040F2E1418BA000F0E2FBF0
:100F500000BF00BF207900F01F00401C182805D8F2
:100F6000207900F01F00401C00B104E040F2E24193
:100F700081A000F0CFFB00BF00BF6068C0F3082075
:100F8000401CB0F5F07F06D86068C0F30820401C14
:100F9000142800D304E040F2E34177A000F0BAFB4C
:100FA00000BF00BF0121606801EB1070102805D858
:100FB000606801EB1070022800D304E040F2E441C5
:100FC0006DA000F0A7FB00BF2079C0F3C01008B9E6
:100FD000784901E078480168207900F01F00401C42
:100FE000B1FBF0F76068C0F30820401C00FB07F578
:100FF00000BF7248874203D87148874200D304E09B
:1010000040F2EA415CA000F085FB00BF00BF6D48E4
:10101000854203D84010854200D304E040F2EB4102
:1010200055A000F077FB00BF00BF0121606801EB15
:101030001070B5FBF0F06449884209D8012160685E
:1010400001EB1070B5FBF0F06049884200D304E07A
:1010500040F2EC4148A000F05DFB00BF00BF6068BB
:10106000C0F30360401C102806D86068C0F303601A
:10107000401C022800D304E040F2ED413EA000F005
:1010800049FB00BF00BF6068C0F30350401C10283C
:1010900006D86068C0F30350401C022800D304E067
:1010A00040F2EE4134A000F035FB00BF00BF6068A5
:1010B000C0F30350401CB5FBF0F04349884209D807
:1010C0006068C0F30350401CB5FBF0F00911884282
:1010D00000D304E040F2EF4127A000F01BFB00BF6B
:1010E00000BF6068C0F30360401CB5FBF0F03649F8
:1010F000884209D86068C0F30360401CB5FBF0F07B
:101100000911884200D304E04FF49E611AA000F058
:1011100001FB00BF00BF2078012801D0207800B972
:1011200004E040F2F14114A000F0F4FA00BF00BF67
:101130002748008800F0010000B104E040F2F241CD
:101140000DA000F0E7FA00BF2079C109214800682E
:1011500061F3C7101F49086060680860207820B9F3
:101160000120FFF773FE064603E00020FFF76EFE46
:1011700006463046BDE8F0812E2E2F2E2E2F2E2E25
:101180002F2E2E2F2E2E2F2E2E2F64726976657203
:10119000732F686333325F6C6C5F6472697665725B
:1011A0002F7372632F686333325F6C6C5F636C6B99
:1011B0002E63000000127A000480FF1F40787D013A
:1011C00040420F0000389C1C001C4E0EC0E1E400A1
:1011D000FE430540004105400146002009B9C01EFC
:1011E00022E000224A604A6822F080024A604A688F
:1011F00022F01F024A6013234A6863F310224A60F8
:101200004A6822F0704202F180524A604A6822F035
:10121000706202F180724A604A6822F4700202F53C
:1012200080124A6001220A70704770B504460D466C
:101230002946204602F0A0FB02F0F4FF70BD10B575
:101240000446204602F05CFD02F0ECFF10BDF8B54C
:1012500005460C46002000906FF0070609E028467E
:10126000FFF752FD012801D1002605E00098401C3F
:1012700000900098A042F2D900BF3046F8BD0000AF
:1012800070B5044614B96FF002057FE000BF207806
:10129000012801D0207800B904E040F2A9313CA037
:1012A00000F038FA00BF00BF607840B160781028C5
:1012B00005D06078202802D06078302800D104E082
:1012C00040F2AA3132A000F025FA00BF00BFA0789A
:1012D00010B1A078402800D104E040F2AB312CA03E
:1012E00000F018FA00BF00BFE078802801D0E07855
:1012F00000B904E04FF46B7125A000F00BFA00BFB9
:1013000000BF2079012817D02079022814D0207935
:10131000032811D0207904280ED0207905280BD07D
:101320002079062808D02079072805D020790828B8
:1013300002D02079092800D104E040F2AD3114A098
:1013400000F0E8F900BF00BF2048008800F001006D
:1013500000B104E040F2AE310DA000F0DBF900BFB7
:1013600020791B490870E07861780843A178084328
:10137000164912310870207820B90120FFF7FCFCD3
:10138000054603E00020FFF7F7FC0546284670BD40
:101390002E2E2F2E2E2F2E2E2F2E2E2F2E2E2F2E68
:1013A0002E2F647269766572732F686333325F6CB7
:1013B0006C5F6472697665722F7372632F68633332
:1013C000325F6C6C5F636C6B2E630000FE43054004
:1013D000A24005400146002009B9C01E08E00122D4
:1013E0000A7000228A704A708022CA7005220A712F
:1013F000704700002DE9FC4704460F469046994689
:10140000DDE90AA54FF0FF361048844208D01048A5
:10141000844205D00F48844202D00F48844208D14C
:101420004B46424639462046CDE900A500F016F865
:1014300006463EB14B46424639462046009500F0EE
:10144000CFF806463046BDE8FC87000000D00140DA
:1014500000D4014000100240001402402DE9FF4F6B
:101460002DED088B85B082466FF00200019000BF21
:101470004748824508D04748824505D046488245BE
:1014800002D04648824500D104E04FF4167144A0D2
:1014900000F040F900BF0E9CDDF83C901098002849
:1014A0006ED01A9800286BD0002C69D0B9F1000FCB
:1014B00066D04FEA8900B4FBF0F0451E002D5FD0E6
:1014C000FF2D5DD80020691C40EB000C0423A1FB1C
:1014D000032B0CFB03B301FB0031A2FB097301FBDF
:1014E000093102FB00184FF480700021A7FB00B304
:1014F00008FB003007FB010C22460B4658466146AC
:10150000FEF7F4FE8021461A7F2E39D81098056028
:101510001A9806601B9888B349004FF0000C3A46B1
:10152000A2FB010B08FB01B107FB0C1807460020CA
:101530008022B21840EB00030021A2FB040C03FB45
:1015400004C302FB0131CDE9020138464146FEF7F2
:101550001DFF41EC1A0BDDE90201FEF717FF53EC0A
:101560001A2BFEF75DFFFEF71DFF00EE100AF7EEE7
:10157000000A30EE608A1B9880ED008A00200190FE
:10158000019805B0BDEC088B04B0BDE8F08F0000F9
:1015900000D0014000D4014000100240001402407D
:1015A0002E2E5C2E2E5C2E2E5C2E2E5C2E2E5C2E75
:1015B0002E5C647269766572735C686333325F6C4B
:1015C0006C5F6472697665725C7372635C686333C6
:1015D000325F6C6C5F75736172742E630000000083
:1015E0002DE9FF4F2DED088B81B006468B469A46BC
:1015F0006FF00200009000BF3248864208D03248A7
:10160000864205D03148864202D03148864200D118
:1016100004E040F295112FA000F07CF800BF5F4677
:101620000B9DBAF1000F45D0F7B3EDB307EB870080
:101630004000A900B0FBF1F0401D0A21B0FBF1F021
:10164000441E8CB3FF2C35D8CAF80040169860B3FE
:101650000020611C40EB00024FF0040C0023A1FBB2
:101660000C0E02FB0CE201FB032300210246A2FB4D
:10167000058C03FB05C300FB013940464946FEF7D4
:1016800085FE41EC1A0B3846FEF773FE53EC1A2B1D
:10169000FEF7C6FEFEF786FE00EE100AF7EE000A21
:1016A00030EE608A169801E004E001E080ED008AE7
:1016B00000200090009801B0BDEC088B04B0BDE89C
:1016C000F08F000000D0014000D401400010024023
:1016D000001402402E2E5C2E2E5C2E2E5C2E2E5CD4
:1016E0002E2E5C2E2E5C647269766572735C686364
:1016F00033325F6C6C5F6472697665725C737263BF
:101700005C686333325F6C6C5F75736172742E63F7
:101710000000000000BFFEE708B50D49096AC1F3EB
:1017200002630C490968D94042F210731944491EFA
:10173000B1FBF3F206E0009200BF00994B1E00934C
:101740000029FAD1011EA0F10100F4D108BD00006A
:10175000004005400080FF1F08B50C49096AC1F32D
:1017600002630B490968D9400A4B1944491EB1FB71
:10177000F3F206E0009200BF00994B1E009300298F
:10178000FAD1011EA0F10100F4D108BD00400540CE
:101790000080FF1F8096980070B50446200B00F073
:1017A00009F805462B464FF47F620621012000F020
:1017B000BBF970BD0246002101E0481C81B2084817
:1017C00050F83100074B984204D0054850F83100DA
:1017D0009042F2D1024800EBC1000079704700004E
:1017E00090400020FFFF0F0070B504460D460948E9
:1017F0000068B0EB143F05D0200B06490860204676
:10180000FFF7CAFF2B4622460321012000F08CF986
:1018100070BD0000804000202DE9F041254805689A
:10182000B5F5806F02D3B5F5803F02D90120BDE840
:10183000F081002406E02048065920463146FFF793
:10184000D3FF241D281D8442F5D9002240F2FC71EB
:10185000012000F055F9642003F0FEFE012240F261
:10186000FC71104600F04CF941F2883003F0F4FEB0
:101870001249002000F05CF807461149002000F0F2
:1018800057F880460F49002000F052F880460E4974
:10189000002000F04DF880460B49091D002000F0A3
:1018A00047F8804640F22310874201D00120BEE76E
:1018B0000020BCE76C3F00204C80FF1F040000208C
:1018C00008200020600020000060002070B506465F
:1018D0002EB14FF00051002000F02AF804460C4AC7
:1018E0005107002000F00CF94FF00051002000F0EB
:1018F0001FF80749884201D0012070BD2EB1224651
:101900004FF00051002000F0FBF80020F5E7000048
:101910002143658710B5054800F0B2F80120FFF7B4
:10192000D5FF012800D110BD0020FCE7703F00204A
:101930002DE9F04104460D460027012C01D1062077
:1019400000E00320064600232A463146184600F0F0
:1019500005F807463846BDE8F08100002DE9F04162
:1019600006460D4614461F46062D05D0200B064997
:1019700008602046FFF710FF3B46224629463046C6
:1019800000F0D2F8BDE8F081804000203EB504466A
:10199000BDF8080062F30B000290BDF8080061F387
:1019A0000E300290BDF8080064F3CF300290BDF80D
:1019B00008503248006865F31F40304D286000250C
:1019C00000950195082956D2DFE801F00414552549
:1019D00055551539DDE9000563F31F65CDE90005AF
:1019E0000198000C254D2D6860F30F052348056014
:1019F00001203EBD00BFDDE9000563F31F45CDE9D1
:101A000000050198000C1D4D2D6860F30F051B4863
:101A100005600120EDE70098CDE900030198000C76
:101A2000164D2D6860F30F0514480560DDE9005080
:101A30002D0C60F31F45114845600220D9E70020B6
:101A4000CDE900300198000C0C4D2D6860F30F05B6
:101A50000A480560DDE900502D0C60F31F4507487A
:101A60004560009880B2054DAD6860F31F4503489E
:101A700085600320BDE70020BBE700007057002011
:101A800070B50446002500BF0CE004EB051696E88F
:101A90000F0000F00FF8012800D170BD0A2003F0FC
:101AA000DBFD6D1C04EB05104068401C0028ECD1E8
:101AB00000BFF2E71FB59DF8000058B1012802D021
:101AC000022811D10CE09DF80100DDE9011200F0BF
:101AD00017F80CE09DF801000199FFF729FF06E0D7
:101AE000029803F0B9FD02E0012004B010BD00BF70
:101AF0000020FAE710B5FFF70DFFFFF78DFE10BDD0
:101B00002DE9F04104460D461646012C01D1062070
:101B100000E00320074633462A4639460120FFF7F6
:101B20001DFFBDE8F08100002DE9FC4105460E4691
:101B300014461F460020009001908046A2B23B460A
:101B400031462846FFF722FF0B480068000CADF82D
:101B500000000948008880B2ADF8020006484068DD
:101B6000000CADF804006A463146284601F016FD27
:101B700080464046BDE8FC81705700202DE9F041C9
:101B800004460D4616461F46E06880470221284657
:101B9000626990478046B8F1000F04D1394630465B
:101BA000A26990478046206980474046BDE8F081A1
:101BB0002DE9F04104460D4616461F46E068804771
:101BC00002212846626990478046B8F1000F04D18F
:101BD00039463046626990478046206980474046D2
:101BE000BDE8F08170B50446002500BF1D480068BF
:101BF000012800D104E040F207111BA0FFF78AFD85
:101C000000BF00BFF02C00D804E04FF4847116A090
:101C1000FFF780FD00BF13480830006820F0F00097
:101C200004F0F00108430F490831086010E06D1C12
:101C30001C48006AC0F302611B480068C84044F6B3
:101C40002061B0FBF1F0A84202D26FF0070070BD36
:101C500004480830006800F0F000A042E7D10020FE
:101C6000F5E70000000401402E2E2F2E2E2F2E2EE1
:101C70002F2E2E2F2E2E2F2E2E2F64726976657208
:101C8000732F686333325F6C6C5F64726976657260
:101C90002F7372632F686333325F6C6C5F65666DA0
:101CA0002E630000004005400080FF1F10B5044671
:101CB00000BF3CB14FF6FF7020434FF6FF718842E2
:101CC00000D104E040F203210448FFF723FD00BFE8
:101CD0000348806D20430249886510BD585D0000AF
:101CE0000010054010B5044600BF3CB14FF6FF7030
:101CF00020434FF6FF71884200D104E04FF4047195
:101D00000548FFF707FD00BF0448406D204008B1BB
:101D1000012010BD0020FCE7585D000000100540C8
:101D200070B504460D4600BF2CB117482043164934
:101D3000884200D103E0712114A0FFF7EBFC00BF43
:101D400000BF0DB1012D00D103E072210FA0FFF7FC
:101D5000E1FC00BF00BF1C48006900F0010000B1B9
:101D600003E0732109A0FFF7D5FC00BF012D05D1C9
:101D700015480068A0431449086004E01248006850
:101D800020431149086070BD11C5F38F2E2E2F2EF0
:101D90002E2F2E2E2F2E2E2F2E2E2F2E2E2F6472E4
:101DA00069766572732F686333325F6C6C5F64723F
:101DB000697665722F7372632F686333325F6C6C60
:101DC0005F6663672E6300000080044070B50446C0
:101DD0000D4600BF2CB1114820431049884200D164
:101DE00003E084210EA0FFF795FC00BF00BF0DB1FA
:101DF000012D00D103E0852109A0FFF78BFC00BF76
:101E0000012D05D115484068A0431449486004E0FD
:101E10001248406820431149486070BD79FD0F0F9A
:101E20002E2E2F2E2E2F2E2E2F2E2E2F2E2E2F2ECD
:101E30002E2F647269766572732F686333325F6C1C
:101E40006C5F6472697665722F7372632F68633397
:101E5000325F6C6C5F6663672E6300000080044035
:101E600070B504460D4600BF2CB1114820431049FF
:101E7000884200D103E096210EA0FFF74BFC00BF83
:101E800000BF0DB1012D00D103E0972109A0FFF79C
:101E900041FC00BF012D05D115488068A0431449BD
:101EA000886004E01248806820431149886070BD52
:101EB000FF8707002E2E2F2E2E2F2E2E2F2E2E2F69
:101EC0002E2E2F2E2E2F647269766572732F686303
:101ED00033325F6C6C5F6472697665722F73726304
:101EE0002F686333325F6C6C5F6663672E6300003C
:101EF000008004402DE9F05F05460F4614464FF080
:101F0000000B14B96FF0020BD5E000BF6B480088DE
:101F100000F0010000B103E0FF2169A0FFF7FAFB28
:101F200000BF00BF4DB1012D07D0022D05D0032DFC
:101F300003D0042D01D0052D00D104E04FF48071B1
:101F40005FA0FFF7E7FB00BF00BF17B1B8B200B159
:101F500004E040F201115AA0FFF7DCFB00BF00BF14
:101F6000208810B12088012800D104E04FF481714D
:101F700053A0FFF7CFFB00BF00BF608810B160889F
:101F8000022800D104E040F203114DA0FFF7C2FB8C
:101F900000BF00BFA08810B1A088042800D104E0D1
:101FA0004FF4827146A0FFF7B5FB00BF00BFE08889
:101FB00028B1E088102802D0E088202800D104E071
:101FC00040F205113EA0FFF7A5FB00BF00BF20892E
:101FD00018B12089B0F5804F00D104E04FF483712F
:101FE00037A0FFF797FB00BF00BF608910B1608981
:101FF000402800D104E040F2071131A0FFF78AFB2E
:1020000000BF00BFA08918B1A089B0F5007F00D142
:1020100004E04FF484712AA0FFF77CFB00BF00BFEF
:10202000E08918B1E089B0F5805F00D104E040F2AA
:10203000091123A0FFF76EFB00BF00BF208A18B173
:10204000208AB0F5004F00D104E04FF485711CA048
:10205000FFF760FB00BF00262BE00120B0403840B6
:1020600028B3208861880843A1880843E188084391
:1020700061890843A1890843E1890843218940EA2D
:10208000010A45F27728208A40EA0A0A48F4004803
:102090000A48001D00EB851000EB8609B9F8000026
:1020A00020EA08000AEA08010843A9F80000701CA9
:1020B000C6B2102ED1D35846BDE8F09FFC3B054078
:1020C0002E2E2F2E2E2F2E2E2F2E2E2F2E2E2F2E2B
:1020D0002E2F647269766572732F686333325F6C7A
:1020E0006C5F6472697665722F7372632F686333F5
:1020F000325F6C6C5F6770696F2E630070B5044669
:102100000D4600BF4CB1012C07D0022C05D0032C8A
:1021100003D0042C01D0052C00D104E040F2F111D1
:102120000CA0FFF7F7FA00BF00BF15B1A8B200B1CD
:1021300004E04FF4F97107A0FFF7ECFA00BF14496F
:1021400001EB0410B0F80008284008B1012070BD70
:102150000020FCE72E2E2F2E2E2F2E2E2F2E2E2F50
:102160002E2E2F2E2E2F647269766572732F686360
:1021700033325F6C6C5F6472697665722F73726361
:102180002F686333325F6C6C5F6770696F2E63001A
:102190000030054070B504460D4600BF4CB1012C1F
:1021A00007D0022C05D0032C03D0042C01D0052C21
:1021B00000D104E040F23D210BA0FFF7ABFA00BFD5
:1021C00000BF15B1A8B200B104E040F23E2106A064
:1021D000FFF7A0FA00BF1348102101FB0406308866
:1021E0002843308070BD00002E2E2F2E2E2F2E2E35
:1021F0002F2E2E2F2E2E2F2E2E2F64726976657283
:10220000732F686333325F6C6C5F647269766572DA
:102210002F7372632F686333325F6C6C5F67706912
:102220006F2E63000A3805402DE9F04104460F4641
:10223000164600BF4CB1012C07D0022C05D0032C50
:1022400003D0042C01D0052C00D104E040F277111A
:102250001EA0FFF75FFA00BF00BF17B1B8B200B110
:1022600004E04FF4BC7119A0FFF754FA00BF00BF9F
:102270000F2E03D9202E02D33B2E00D804E040F2CB
:10228000791112A0FFF746FA00BF00BF1E48008870
:1022900000F0010000B104E04FF4BD710BA0FFF7A6
:1022A00039FA00BF00250DE00120A840384038B1C0
:1022B0001548801D00EB841000EB8508A8F800602D
:1022C000681CC5B2102DEFD3BDE8F0812E2E2F2E45
:1022D0002E2F2E2E2F2E2E2F2E2E2F2E2E2F64729F
:1022E00069766572732F686333325F6C6C5F6472FA
:1022F000697665722F7372632F686333325F6C6C1B
:102300005F6770696F2E6300FC3B054070B5044643
:102310000D4600BF4CB1012C07D0022C05D0032C78
:1023200003D0042C01D0052C00D104E040F22B2175
:102330000BA0FFF7EFF900BF00BF15B1A8B200B1C5
:1023400004E04FF40B7106A0FFF7E4F900BF134857
:10235000102101FB040630882843308070BD000046
:102360002E2E2F2E2E2F2E2E2F2E2E2F2E2E2F2E88
:102370002E2F647269766572732F686333325F6CD7
:102380006C5F6472697665722F7372632F68633352
:10239000325F6C6C5F6770696F2E630008380540B0
:1023A00010B5044600BF44B1B4F5804F05D0B4F574
:1023B000004F02D0B4F5404F00D104E040F2CD11FF
:1023C0000EA0FFF7A7F900BF00BF1B48008800F070
:1023D000010000B104E04FF4E77108A0FFF79AF99B
:1023E00000BF1548001F0088C0F30D0004F44041F1
:1023F00008431149091F088010BD00002E2E2F2E02
:102400002E2F2E2E2F2E2E2F2E2E2F2E2E2F64726D
:1024100069766572732F686333325F6C6C5F6472C8
:10242000697665722F7372632F686333325F6C6CE9
:102430005F6770696F2E6300FC3B0540014600201A
:1024400009B9C01E09E000220A804A80CA800A82B7
:102450000A814A818A81CA818A80704770B50446A0
:102460000D4600BF4CB1012C07D0022C05D0032C27
:1024700003D0042C01D0052C00D104E04FF41871D6
:102480000BA0FFF747F900BF00BF15B1A8B200B11C
:1024900004E040F2612106A0FFF73CF900BF1348B9
:1024A000102101FB040630882843308070BD0000F5
:1024B0002E2E2F2E2E2F2E2E2F2E2E2F2E2E2F2E37
:1024C0002E2F647269766572732F686333325F6C86
:1024D0006C5F6472697665722F7372632F68633301
:1024E000325F6C6C5F6770696F2E63000C3805405B
:1024F00070B504460D467CB1204600F00FF8B4F9E3
:10250000020003F0B9F8B4F90200294603F0D4F848
:10251000B4F9020003F0BEF870BD000070B50446C7
:1025200000260CB9F61E4BE000BF2088B0F5007FF6
:1025300000DA03E0C3212348FFF7ECF800BF20884E
:10254000400900EB4000202101EB4000B4F90210EB
:1025500088420AD82088400900EB4000252101EB81
:102560004000B4F90210884206D2B4F902002028D3
:1025700002D36FF0020623E060881349042212FBA5
:1025800000152868C0F3080040F2FF11884208D106
:1025900020882860B4F902100C4A606842F82100D3
:1025A0000EE020882968C1F30801884206D1B4F9F9
:1025B0000210064A606842F8210001E06FF001064F
:1025C000304670BD585D00005C100540705500201D
:1025D00010B502490868804710BD00007055002002
:1025E00010B502494868804710BD000070550020B2
:1025F00010B502498868804710BD00007055002062
:1026000010B50249C868804710BD00007055002011
:1026100010B502490869804710BD000070550020C0
:1026200010B502494869804710BD00007055002070
:1026300010B502498869804710BD00007055002020
:1026400010B50249C869804710BD000070550020D0
:1026500010B50249086A804710BD0000705500207F
:1026600010B50249486A804710BD0000705500202F
:1026700010B50249886A804710BD000070550020DF
:1026800010B50249C86A804710BD0000705500208F
:1026900010B50249086B804710BD0000705500203E
:1026A00010B50249486B804710BD000070550020EE
:1026B00010B50249886B804710BD0000705500209E
:1026C00010B50249C86B804710BD0000705500204E
:1026D00010B50249086C804710BD000070550020FD
:1026E00010B50249486C804710BD000070550020AD
:1026F00010B50249886C804710BD0000705500205D
:1027000010B50249C86C804710BD0000705500200C
:1027100010B50249086D804710BD000070550020BB
:1027200010B50249486D804710BD0000705500206B
:1027300010B50249886D804710BD0000705500201B
:1027400010B50249C86D804710BD000070550020CB
:1027500010B50249086E804710BD0000705500207A
:1027600010B50249486E804710BD0000705500202A
:1027700010B50249886E804710BD000070550020DA
:1027800010B50249C86E804710BD0000705500208A
:1027900010B50249086F804710BD00007055002039
:1027A00010B50249486F804710BD000070550020E9
:1027B00010B50249886F804710BD00007055002099
:1027C00010B50249C86F804710BD00007055002049
:1027D00010B50249D1F88000804710BD7055002027
:1027E00010B50249D1F88400804710BD7055002013
:1027F00010B50249D1F88800804710BD70550020FF
:1028000010B50249D1F88C00804710BD70550020EA
:1028100010B50249D1F89000804710BD70550020D6
:1028200010B50249D1F89400804710BD70550020C2
:1028300010B50249D1F89800804710BD70550020AE
:1028400010B50249D1F89C00804710BD705500209A
:1028500010B50249D1F8A000804710BD7055002086
:1028600010B50249D1F8A400804710BD7055002072
:1028700010B50249D1F8A800804710BD705500205E
:1028800010B50249D1F8AC00804710BD705500204A
:1028900010B50249D1F8B000804710BD7055002036
:1028A00010B50249D1F8B400804710BD7055002022
:1028B00010B50249D1F8B800804710BD705500200E
:1028C00010B50249D1F8BC00804710BD70550020FA
:1028D00010B50249D1F8C000804710BD70550020E6
:1028E00010B50249D1F8C400804710BD70550020D2
:1028F00010B50249D1F8C800804710BD70550020BE
:1029000010B50249D1F8CC00804710BD70550020A9
:1029100010B50249D1F8D000804710BD7055002095
:1029200010B50249D1F8D400804710BD7055002081
:1029300010B50249D1F8D800804710BD705500206D
:1029400010B50249D1F8DC00804710BD7055002059
:1029500010B50249D1F8E000804710BD7055002045
:1029600010B50249D1F8E400804710BD7055002031
:1029700010B50249D1F8E800804710BD705500201D
:1029800010B50249D1F8EC00804710BD7055002009
:1029900010B50249D1F8F000804710BD70550020F5
:1029A00010B50249D1F8F400804710BD70550020E1
:1029B00010B50249D1F8F800804710BD70550020CD
:1029C00010B50249D1F8FC00804710BD70550020B9
:1029D00010B50249D1F80001804710BD70550020A4
:1029E00010B50249D1F80401804710BD7055002090
:1029F00010B50249D1F80801804710BD705500207C
:102A000010B50249D1F80C01804710BD7055002067
:102A100010B50249D1F81001804710BD7055002053
:102A200010B50249D1F81401804710BD705500203F
:102A300010B50249D1F81801804710BD705500202B
:102A400010B50249D1F81C01804710BD7055002017
:102A500010B50249D1F82001804710BD7055002003
:102A600010B50249D1F82401804710BD70550020EF
:102A700010B50249D1F82801804710BD70550020DB
:102A800010B50249D1F82C01804710BD70550020C7
:102A900010B50249D1F83001804710BD70550020B3
:102AA00010B50249D1F83401804710BD705500209F
:102AB00010B50249D1F83801804710BD705500208B
:102AC00010B50249D1F83C01804710BD7055002077
:102AD00010B50249D1F84001804710BD7055002063
:102AE00010B50249D1F84401804710BD705500204F
:102AF00010B50249D1F84801804710BD705500203B
:102B000010B50249D1F84C01804710BD7055002026
:102B100010B50249D1F85001804710BD7055002012
:102B200010B50249D1F85401804710BD70550020FE
:102B300010B50249D1F85801804710BD70550020EA
:102B400010B50249D1F85C01804710BD70550020D6
:102B500010B50249D1F86001804710BD70550020C2
:102B600010B50249D1F86401804710BD70550020AE
:102B700010B50249D1F86801804710BD705500209A
:102B800010B50249D1F86C01804710BD7055002086
:102B900010B50249D1F87001804710BD7055002072
:102BA00010B50249D1F87401804710BD705500205E
:102BB00010B50249D1F87801804710BD705500204A
:102BC00010B50249D1F87C01804710BD7055002036
:102BD00010B50249D1F88001804710BD7055002022
:102BE00010B50249D1F88401804710BD705500200E
:102BF00010B50249D1F88801804710BD70550020FA
:102C000010B50249D1F88C01804710BD70550020E5
:102C100010B50249D1F89001804710BD70550020D1
:102C200010B50249D1F89401804710BD70550020BD
:102C300010B50249D1F89801804710BD70550020A9
:102C400010B50249D1F89C01804710BD7055002095
:102C500010B50249D1F8A001804710BD7055002081
:102C600010B50249D1F8A401804710BD705500206D
:102C700010B50249D1F8A801804710BD7055002059
:102C800010B50249D1F8AC01804710BD7055002045
:102C900010B50249D1F8B001804710BD7055002031
:102CA00010B50249D1F8B401804710BD705500201D
:102CB00010B50249D1F8B801804710BD7055002009
:102CC00010B50249D1F8BC01804710BD70550020F5
:102CD00010B50249D1F8C001804710BD70550020E1
:102CE00010B50249D1F8C401804710BD70550020CD
:102CF00010B50249D1F8C801804710BD70550020B9
:102D000010B50249D1F8CC01804710BD70550020A4
:102D100010B50249D1F8D001804710BD7055002090
:102D200010B50249D1F8D401804710BD705500207C
:102D300010B50249D1F8D801804710BD7055002068
:102D400010B50249D1F8DC01804710BD7055002054
:102D500010B50249D1F8E001804710BD7055002040
:102D600010B50249D1F8E401804710BD705500202C
:102D700010B50249D1F8E801804710BD7055002018
:102D800010B50249D1F8EC01804710BD7055002004
:102D900010B50249D1F8F001804710BD70550020F0
:102DA00010B50249D1F8F401804710BD70550020DC
:102DB00010B50249D1F8F801804710BD70550020C8
:102DC00010B50249D1F8FC01804710BD70550020B4
:102DD00010B5044604F0010048B100BF40F22310D2
:102DE0001A49086043F21020086000BF00BF04F0D9
:102DF000020028B100BF16481649086100BF00BF95
:102E000004F0040030B100BF4AF2015012490880BA
:102E100000BF00BF04F0100018B14AF2085000F0E3
:102E2000B3F804F0400018B14AF2035000F0ACF8D7
:102E300004F0800040B100BF7720084908600749CE
:102E40000831086000BF00BF10BD00000004014051
:102E50000100A5A500800440FC3B05400408054096
:102E600010B5044604F0010028B100BF0020194944
:102E7000086000BF00BF04F0020028B100BF164880
:102E80001649086100BF00BF04F0040030B100BF64
:102E90004FF425401249088000BF00BF04F0100025
:102EA00018B14AF2085000F061F804F0400018B17F
:102EB0004AF2035000F05AF804F0800040B100BF1D
:102EC00076200849086007490831086000BF00BF44
:102ED00010BD0000000401400000A5A500800440D2
:102EE000FC3B05400408054010B500BF0F480088B2
:102EF00000F00200022800D104E04FF488610CA029
:102F0000FEF708FC00BF0948001D007800F0C00073
:102F100040F00F000549091D0870102003491131C8
:102F200008701E20FEF718FC002010BDFE4305406F
:102F30002E2E2F2E2E2F2E2E2F2E2E2F2E2E2F2EAC
:102F40002E2F647269766572732F686333325F6CFB
:102F50006C5F6472697665722F7372632F68633376
:102F6000325F6C6C5F7077632E63000004490988E0
:102F7000814341F42541034AA2F8FE137047000043
:102F8000FE43054000400540034909880143034AC8
:102F9000A2F8FE1370470000FE43054000400540C4
:102FA00070B504460D4600BF1448844208D014484A
:102FB000844205D01348844202D01348844200D191
:102FC00004E040F20F2111A0FEF7A4FB00BF00BFF8
:102FD0000DB1012D00D104E04FF404710BA0FEF7F8
:102FE00099FB00BF012D04D1606840F04000606093
:102FF00003E0606820F04000606070BD00C00140E8
:1030000000C4014000000240000402402E2E2F2E7A
:103010002E2F2E2E2F2E2E2F2E2E2F2E2E2F647251
:1030200069766572732F686333325F6C6C5F6472AC
:10303000697665722F7372632F686333325F6C6CCD
:103040005F7370692E63000010B5044600BF0E4820
:10305000844208D00D48844205D00D48844202D0F5
:103060000C48844200D104E040F2CB110AA0FEF7E4
:1030700051FB00BF002060601020E06040F61D7032
:10308000A0612020606110BD00C0014000C401406B
:1030900000000240000402402E2E2F2E2E2F2E2E36
:1030A0002F2E2E2F2E2E2F2E2E2F647269766572C4
:1030B000732F686333325F6C6C5F6472697665721C
:1030C0002F7372632F686333325F6C6C5F73706948
:1030D0002E63000001466FF0020021B100220A6059
:1030E0004A608A600020704770B505460C466FF054
:1030F000020600BF6748854208D06748854205D070
:103100006648854202D06648854200D104E04FF40B
:10311000237164A0FEF7FEFA00BF002C7CD000BF34
:103120002068D8B12068B0F1805F17D02068B0F176
:10313000005F13D02068B0F1405F0FD02068B0F17D
:10314000804F0BD02068B0F1A04F07D02068B0F1BD
:10315000C04F03D02068B0F1E04F00D104E040F24E
:103160008F2150A0FEF7D6FA00BF00BF6068D8B12B
:103170006068B0F1807F17D06068B0F1007F13D035
:103180006068B0F1407F0FD06068B0F1806F0BD005
:103190006068B0F1A06F07D06068B0F1C06F03D075
:1031A0006068B0F1E06F00D104E04FF424713DA0FD
:1031B000FEF7B0FA00BF00BFA068D8B1A068B0F5B4
:1031C000801F17D0A068B0F5001F13D0A068B0F51D
:1031D000401F0FD0A068B0F5800F0BD0A068B0F5ED
:1031E000A00F07D0A068B0F5C00F03D0A068B0F55D
:1031F000E00F00D104E040F291212AA0FEF78AFA04
:1032000000BF206848B9A86920F40050A861E868A8
:1032100020F0E040E8600CE03AE0E86820F0E040B0
:10322000216801F0E0410843E860A86940F40050DB
:10323000A861606840B9A86920F48040A861E86886
:1032400020F0E060E8600BE0A86940F48040A861ED
:10325000E86820F0E060616801F0E0610843E86040
:10326000A06840B9A86920F40040A861E86820F48B
:10327000E000E8600BE0A86940F40040A861E8685D
:1032800020F4E000A16801F4E0010843E8600026B2
:10329000304670BD00C0014000C401400000024043
:1032A000000402402E2E2F2E2E2F2E2E2F2E2E2FAC
:1032B0002E2E2F2E2E2F647269766572732F6863FF
:1032C00033325F6C6C5F6472697665722F73726300
:1032D0002F686333325F6C6C5F7370692E6300001C
:1032E00070B505460C466FF0020600BF984885424F
:1032F00008D09848854205D09748854202D0974823
:10330000854200D104E04FF4D17195A0FEF702FA96
:1033100000BF002C72D000BF206810B120680128C7
:1033200000D104E040F2A5118DA0FEF7F3F900BF33
:1033300000BF606810B16068022800D104E04FF45B
:10334000D37187A0FEF7E6F900BF00BFA06810B1F7
:10335000A068082800D104E040F2A71180A0FEF781
:10336000D9F900BF00BFE06818B1E068B0F5805F30
:1033700000D104E04FF4D47179A0FEF7CBF900BF7F
:1033800000BF206938B12069B0F5004F03D0206933
:10339000B0F5404F00D104E040F2A91170A0FEF753
:1033A000B9F900BF00BF606940B16069012805D06C
:1033B0006069022802D06069032800D104E04FF45C
:1033C000D57167A0FEF7A6F900BF00BFA069A0B144
:1033D000A069042811D0A06908280ED0A0690C2883
:1033E0000BD0A069102808D0A069142805D0A069C6
:1033F000182802D0A0691C2801D105E0A5E040F200
:10340000AB1157A0FEF786F900BF00BFE069D8B343
:10341000E069B0F5807F37D0E069B0F5007F33D048
:10342000E069B0F5407F2FD0E069B0F5806F2BD018
:10343000E069B0F5A06F27D0E069B0F5C06F23D088
:10344000E069B0F5E06F1FD0E069B0F5006F1BD008
:10345000E069B0F5106F17D0E069B0F5206F13D0B8
:10346000E069B0F5306F0FD0E069B0F5406F0BD078
:10347000E069B0F5506F07D0E069B0F5606F03D038
:10348000E069B0F5706F00D104E04FF4D67134A05C
:10349000FEF740F900BF00BF206A18B1206AB0F5FE
:1034A000805F00D104E040F2AD112DA0FEF732F9AB
:1034B00000BF00BF606A10B1606A802800D104E0DC
:1034C0004FF4D77126A0FEF725F900BF00BFA06A10
:1034D00040B1A06A012805D0A06A022802D0A06AE3
:1034E000032800D104E040F2AF111DA0FEF712F94D
:1034F00000BFA068082803D1E068B0F5805F24D041
:103500002068012806D1A06820B96069E8B1606927
:1035100002281AD0D4E900010843A1680843616A6F
:103520000843E168084321690843686094F828105B
:10353000E86861F30100E860D4E905010843E16946
:103540000843216A0843A8610026304670BD000088
:1035500000C0014000C401400000024000040240DD
:103560002E2E2F2E2E2F2E2E2F2E2E2F2E2E2F2E76
:103570002E2F647269766572732F686333325F6CC5
:103580006C5F6472697665722F7372632F68633340
:10359000325F6C6C5F7370692E630000F0B587B0AA
:1035A00006460D4614460027002001902088001290
:1035B0008DF8080020788DF80900A41C012E29D16F
:1035C000012D01D0062D0DD1208800128DF80400A8
:1035D00020788DF80500022301AA02A92D48FEF7E4
:1035E000E7FA54E0032D52D1208800128DF8040030
:1035F00020788DF80500A41C208800128DF80600A4
:1036000020788DF80700042301AA02A92148FEF7BB
:10361000CFFA3CE0012D01D0062D13D1022301AADF
:1036200002A91C48FEF7AAFA9DF8040000020390C4
:103630009DF805000490039800F47F400499C9B2F6
:10364000471824E0032D22D1042301AA02A911481E
:10365000FEF794FA9DF80400000603909DF805001B
:10366000000404909DF80600000205909DF80700F4
:103670000690039800F07F40049901F47F0108440C
:10368000059901F47F4108440699C9B247183846A4
:1036900007B0F0BD3080FF1F2DE9F84307460C4608
:1036A00015461E466FF0020844B13DB12B46224636
:1036B00000213846009600F079F880464046BDE883
:1036C000F88301466FF0020089B100220A604A6067
:1036D00008228A600022CA600A614A6108228A615F
:1036E000D201CA6100220A624A628A6200207047DF
:1036F0002DE9F84305460E4614461F466FF00209B1
:10370000B6B1ACB1686800F00208B8F1020F07D199
:103710003B4622463146284600F00DF8814607E038
:103720002346002231462846009700F03FF88146A4
:103730004846BDE8F8832DE9F84304460D46174690
:103740009946002000900026A06900F470681EE0F1
:10375000B8F5806F03D80098285C20600BE0B8F5BE
:10376000406F04D8009835F81000206003E00098FE
:1037700055F8200020604B4620221146204600F0DC
:1037800070F8064606B105E00098401C00900098CD
:10379000B842DDD300BF36B94B4600220221204695
:1037A00000F05FF806463046BDE8F8832DE9FC5F7F
:1037B00004460D4616469A46DDF830B000200190CA
:1037C0008146A06900F470673BE09DB1B7F5806F5A
:1037D00003D80198285C20600FE0B7F5406F04D84B
:1037E000019835F81000206007E0019855F8200096
:1037F000206002E04FF0FF3020605B4680221146DF
:10380000204600F02EF88146B9F1000F19D1D4F806
:1038100000808EB1B7F5806F03D8019906F801805A
:103820000CE0B7F5406F03D8019926F8118005E048
:10383000019846F8208001E0206800900198401C23
:10384000019001985045C0D3B9F1000F06D15B46F5
:1038500000220221204600F004F881464846BDE8D7
:10386000FC9F30B50446002004E013B96FF0070058
:1038700004E05B1E65690D409542F6D100BF30BD86
:103880002DE9F04704460F4690464FF0000900BF6F
:1038900024B144F00F000F2800D103E0AA2126A094
:1038A000FDF738FF00BF00BF072F00D803E0AB21B2
:1038B00021A0FDF72FFF00BF00BFB8F1070F00D810
:1038C00003E0AC211CA0FDF725FF00BF00BF294885
:1038D0000068772800D103E0AD2117A0FDF71AFF9B
:1038E00000BF24E004F00100E0B14FEAC960050E1A
:1038F000281DC6B207FA05F008FA06F108430721A9
:10390000A9400722B240114308400721A9400722DD
:10391000B2401143174A121F12688A4310431549D7
:10392000091F0860640809F1010000F0FF09002C7C
:10393000D8D1BDE8F08700002E2E2F2E2E2F2E2E50
:103940002F2E2E2F2E2E2F2E2E2F6472697665721B
:10395000732F686333325F6C6C5F64726976657273
:103960002F7372632F686333325F6C6C5F737261A5
:103970006D2E6300040805402DE9FF4105460C4605
:103980000026CA4800680390C84840680290C748AB
:1039900080680190C548C068009000BF04F0E060F6
:1039A000E8B104F0E060B0F1807F18D004F0E0608E
:1039B000B0F1007F13D004F0E060B0F1407F0ED092
:1039C00004F0E060B0F1806F09D004F0E060B0F185
:1039D000A06F04D004F0E060B0F1C06F00D104E04B
:1039E00040F2C621B2A0FDF795FE00BF00BF04F073
:1039F0007000B8B104F07000102813D004F070000B
:103A000020280FD004F0700030280BD004F0700094
:103A1000402807D004F07000502803D004F0700054
:103A2000602800D104E040F2C721A1A0FDF772FE9A
:103A300000BF00BF04F4E020E8B104F4E020B0F5DA
:103A4000803F18D004F4E020B0F5003F13D004F418
:103A5000E020B0F5403F0ED004F4E020B0F5802F18
:103A600009D004F4E020B0F5A02F04D004F4E02045
:103A7000B0F5C02F00D104E04FF432718CA0FDF7F7
:103A800049FE00BF00BF04F4E000E8B104F4E00028
:103A9000B0F5801F18D004F4E000B0F5001F13D07B
:103AA00004F4E000B0F5401F0ED004F4E000B0F5DF
:103AB000800F09D004F4E000B0F5A00F04D004F4A6
:103AC000E000B0F5C00F00D104E040F2CA2178A0B8
:103AD000FDF720FE00BF00BF04F00700B8B104F0FE
:103AE0000700012813D004F0070002280FD004F0CB
:103AF000070003280BD004F00700042807D004F0C7
:103B00000700052803D004F00700062800D104E0D0
:103B100040F2CB2166A0FDF7FDFD00BF00BF04F41D
:103B2000E060E8B104F4E060B0F5807F18D004F400
:103B3000E060B0F5007F13D004F4E060B0F5407FA2
:103B40000ED004F4E060B0F5806F09D004F4E060BA
:103B5000B0F5A06F04D004F4E060B0F5C06F00D100
:103B600004E04FF4337152A0FDF7D4FD00BF00BF55
:103B700004F4E040E8B104F4E040B0F5805F18D010
:103B800004F4E040B0F5005F13D004F4E040B0F579
:103B9000405F0ED004F4E040B0F5804F09D004F44B
:103BA000E040B0F5A04F04D004F4E040B0F5C04FC1
:103BB00000D104E040F2CD213DA0FDF7ABFD00BFF8
:103BC00000BF4A48284000B104E040F2CF2138A0AD
:103BD000FDF7A0FD00BF00BF4548008800F00100D0
:103BE00000B104E04FF4347131A0FDF793FD00BF44
:103BF0004048007800F00700052823D1012600BFC7
:103C00002A48006900F0010000B104E040F2D72129
:103C100027A0FDF77FFD00BF374824490860C01288
:103C200048608860C86033482638006AC0F3026183
:103C300032480068C8404CF25031B0FBF1F73846CA
:103C4000FDF756F82B482638006AA84304EA050118
:103C500008432849263908620846006AC0F3026111
:103C600026480068C8404CF25031B0FBF1F73846A6
:103C7000FDF73EF8012E17D10C4903980860029811
:103C80004860019888600098C8601A482638006A21
:103C9000C0F3026119480068C8404CF25031B0FBD3
:103CA000F1F73846FDF724F8BDE8FF8100800440B5
:103CB0002E2E2F2E2E2F2E2E2F2E2E2F2E2E2F2E1F
:103CC0002E2F647269766572732F686333325F6C6E
:103CD0006C5F6472697665722F7372632F686333E9
:103CE000325F6C6C5F636C6B2E63000077777707D5
:103CF000FE430540264005400EFAFFFF0080FF1FEF
:103D00007FB504460025424800680390404840685B
:103D100002903F48806801903D48C068009000BF15
:103D20004CB1012C07D0022C05D0032C03D0042C5D
:103D300001D0052C00D104E040F2572135A0FDF759
:103D4000E9FC00BF00BF4248008800F0010000B15C
:103D500004E04FF416712FA0FDF7DCFC00BF3D48D6
:103D6000007800F00700052801D0052C23D101259B
:103D700000BF2748006900F0010000B104E04FF4E3
:103D8000187124A0FDF7C6FC00BF33482049086025
:103D9000C01248608860C8602E482638006AC0F3A8
:103DA00002612E480068C8404CF25031B0FBF1F679
:103DB0003046FCF79DFF2748047026482638006AE5
:103DC000C0F3026125480068C8404CF25031B0FB96
:103DD000F1F63046FCF78CFF012D17D10C49039802
:103DE000086002984860019888600098C860194887
:103DF0002638006AC0F3026118480068C8404CF2D7
:103E00005031B0FBF1F63046FCF772FF7FBD000089
:103E1000008004402E2E2F2E2E2F2E2E2F2E2E2FB2
:103E20002E2E2F2E2E2F647269766572732F686383
:103E300033325F6C6C5F6472697665722F73726384
:103E40002F686333325F6C6C5F636C6B2E630000B2
:103E5000FE430540264005400EFAFFFF0080FF1F8D
:103E60002DE9FC4704460F4690469946DDE90AA530
:103E70004FF0FF361048844208D01048844205D0E5
:103E80000F48844202D00F48844208D14B46424634
:103E900039462046CDE900A500F016F806463EB1A9
:103EA0004B46424639462046009500F0FBF8064650
:103EB0003046BDE8FC87000000D0014000D401403E
:103EC00000100240001402402DE9FF4F2DED088B39
:103ED0008BB007465E4B0FCB04AC0FC46FF00200F3
:103EE000039000BF5B48874208D05B48874205D0FB
:103EF0005A48874202D05A48874200D104E040F233
:103F00009F2158A0FDF706FC00BF149DDDF85480EA
:103F1000169800287ED020980028FBD0002DF9D0DC
:103F2000B8F1000FF6D0786900F4600400BF5CB10E
:103F3000B4F5001F08D0B4F5800F05D0B4F5C00F5C
:103F400002D0B4F5400F00D104E040F2A62145A014
:103F5000FDF7E0FB00BF600D04A931F8104008FB3D
:103F600004F04000B5FBF0F0A0F10109B9F1FF0F3A
:103F700066D80220A0FB041200204FF0010C19EBC0
:103F80000C0C40EB0003A1FB0C0E02FB0CE201FB4E
:103F900003220021A0FB08A302FB083200FB012B37
:103FA0004FF480710022AAFB01030BFB01310AFBD5
:103FB00002112A460023CDE90001FCF797F9802180
:103FC000461A7F2E3CD81698C0F8009020980660BC
:103FD000219898B349004FF0000C5346A3FB010E03
:103FE0000BFB01E10AFB0C1B824600208022B21869
:103FF00040EB00030021A2FB050C03FB05C302FB01
:104000000131CDE9080150465946FCF7BFF941ECB2
:104010001A0B00E014E0DDE90801FCF7B7F953ECF6
:104020001A2BFCF7FDF9FCF7BDF900EE100AF7EECC
:10403000000A30EE608A219880ED008A002003900B
:1040400003980BB0BDEC088B04B0BDE8F08F000006
:10405000EC5C000000D0014000D4014000100240A0
:10406000001402402E2E5C2E2E5C2E2E5C2E2E5C1A
:104070002E2E5C2E2E5C647269766572735C6863AA
:1040800033325F6C6C5F6472697665725C73726305
:104090005C686333325F6C6C5F75736172742E633E
:1040A000000000002DE9FF4F2DED088B85B005467F
:1040B0009B46474B0FCB01AC0FC46FF00200009042
:1040C00000BF4448854208D04348854205D0434854
:1040D000854202D04248854200D104E04FF4E771A6
:1040E00040A0FDF717FB00BFDDF838800F9EBBF145
:1040F000000F65D0B8F1000F62D0002E60D0686963
:1041000000F4600400BF5CB1B4F5001F08D0B4F542
:10411000800F05D0B4F5C00F02D0B4F5400F00D128
:1041200004E040F2D9112FA0FDF7F4FA00BF600DB2
:1041300001A931F8104008EB8800410006FB04F0AB
:104140004000B1FBF0F0401D0A21B0FBF1F0471E2A
:10415000FF2F35D8CBF800701A9878B30220A0FB57
:10416000041200204FF0010C17EB0C0C40EB000385
:10417000A1FB0C0E02FB0CE201FB03220021034613
:10418000A3FB069C02FB06C200FB012A48465146DF
:10419000FCF7FCF841EC1A0B4046FCF7EAF853EC4C
:1041A0001A2BFCF73DF9FCF7FDF800EE100AF7EECC
:1041B000000A30EE608A1A9880ED008A0020009094
:1041C000009805B0BDEC088B04B0BDE8F08F00008E
:1041D000DC5C000000D0014000D40140001002402F
:1041E000001402402E2E5C2E2E5C2E2E5C2E2E5C99
:1041F0002E2E5C2E2E5C647269766572735C686329
:1042000033325F6C6C5F6472697665725C73726383
:104210005C686333325F6C6C5F75736172742E63BC
:104220000000000070B52B4D2D6805F001051DB193
:10423000294D2A4E356002E0294D284E3560294D22
:104240002D7805F00700062840D2DFE800F00308CB
:104250000C11151A214D2D68234E356037E0234D82
:10426000214E356033E04FF400451F4E35602EE09F
:104270001E4D1D4E35602AE04FF400451A4E356044
:1042800025E0184DDA352D68C5F30822154D263D79
:10429000D5F800512B0F134DDA352D6805F01F04AA
:1042A000104D263DD5F8005105F080050DB90F4998
:1042B00001E00A4D2968651CB1FBF5F5561C7543F4
:1042C0005E1CB5FBF6F5084E356000E000BF00BF90
:1042D00070BD0000840601400024F4000480FF1F2C
:1042E000002D3101264005400080FF1F00127A009A
:1042F00000B50648006840F4700004490860FFF704
:1043000091FF002001498039086000BD88ED00E080
:1043100070B504460D4600BF0F48844202D00F48D6
:10432000844200D104E04FF417710DA0FDF7F2F9BB
:1043300000BF00BF2DB145F00110B0F1011F00D149
:1043400004E040F25D2106A0FDF7E4F900BF6069DA
:10435000A843606170BD000000400240004402407C
:104360002E2E5C2E2E5C2E2E5C2E2E5C2E2E5C2E87
:104370002E5C647269766572735C686333325F6C5D
:104380006C5F6472697665725C7372635C686333D8
:10439000325F6C6C5F746D72302E630010B54FF439
:1043A00080311848FFF7B4FF17480078002804DD73
:1043B00015480078401E144908701448006820B160
:1043C00012480068401E1149086011480078012811
:1043D0000CD100200E4908700E48D0E900305A1C5C
:1043E00040F100000B49C1E9002002E0012008492A
:1043F00008700948006809490860094800680649CA
:10440000086010BD004002401880FF1F1C80FF1F85
:104410001980FF1F1080FF1F2480FF1F2880FF1FAF
:104420002080FF1F00B587B001210846FDF718FD69
:1044300001214804FDF774FC03A800F0EBF900200B
:104440000390049005904CF25030ADF8180003AA88
:1044500001211A4800F094F80120FDF75DF90122CE
:104460001146164800F030F80120FDF755F90122F9
:104470009104124800F034F90120FDF74DF90121B3
:104480000F48FCF729F94120ADF804000620ADF8EB
:1044900006000C48029001A8FEF740F8BDF906009E
:1044A00001F0EAF8BDF906000F2101F005F9BDF9A8
:1044B000060001F0EFF807B000BD00000040024028
:1044C000400801409D43000070B504460D46164665
:1044D00000BF1A48844202D01948844200D104E047
:1044E00040F2F71117A0FDF715F900BF00BF0DB19D
:1044F000012D00D104E04FF4FC7112A0FDF70AF980
:1045000000BF00BF0EB1012E00D104E040F2F9114E
:104510000CA0FDF7FFF800BF012E06D120692A018B
:10452000710391400843206106E020692A014FF49D
:10453000005191408843206170BD0000004002405E
:10454000004402402E2E5C2E2E5C2E2E5C2E2E5C05
:104550002E2E5C2E2E5C647269766572735C6863C5
:1045600033325F6C6C5F6472697665725C73726320
:104570005C686333325F6C6C5F746D72302E630005
:104580002DE9F04706460D4614464FF0000914B9D0
:104590006FF002097FE000BF4048864202D04048E9
:1045A000864200D103E0BD213EA0FDF7B3F800BF75
:1045B00000BF0DB1012D00D103E0BE2139A0FDF7F0
:1045C000A9F800BF00BF206858B12068B0F5007F8F
:1045D00007D02068B0F5807F03D02068B0F5A06FC9
:1045E00000D103E0BF212FA0FDF794F800BF00BF6A
:1045F0006068E8B1606810281AD06068202817D079
:104600006068302814D06068402811D06068502855
:104610000ED0606860280BD06068702808D0606891
:10462000802805D06068902802D06068A02800D15A
:1046300003E0C0211BA0FDF76DF800BF00BFA0681C
:1046400020B148F20201A068884200D103E0C121F4
:1046500014A0FDF75FF800BF06EB85070020386067
:1046600006F1080000EB8508A089C8F80000306951
:104670002A0148F2F27191408843D4E900121143B3
:10468000A26811432A0191402B0148F2F2729A402C
:104690001140084330614846BDE8F08700400240C1
:1046A000004402402E2E5C2E2E5C2E2E5C2E2E5CA4
:1046B0002E2E5C2E2E5C647269766572735C686364
:1046C00033325F6C6C5F6472697665725C737263BF
:1046D0005C686333325F6C6C5F746D72302E6300A4
:1046E00070B504460D46164600BF1748844202D0F6
:1046F0001648844200D104E040F22B2114A0FDF7BB
:1047000009F800BF00BF2DB145F00410B0F1041F3F
:1047100000D104E04FF40B710DA0FCF7FBFF00BFCC
:1047200000BF0EB1012E00D104E040F22D2108A0FF
:10473000FCF7F0FF00BF1EB120692843206102E0B2
:104740002069A843206170BD00400240004402403F
:104750002E2E5C2E2E5C2E2E5C2E2E5C2E2E5C2E93
:104760002E5C647269766572735C686333325F6C69
:104770006C5F6472697665725C7372635C686333E4
:10478000325F6C6C5F746D72302E630070B50446DE
:104790000D4600BF0E48844202D00E48844200D12C
:1047A00003E0F2210CA0FCF7B5FF00BF00BF0DB184
:1047B000012D00D103E0F32107A0FCF7ABFF00BF00
:1047C00020692A01012191400843206170BD000049
:1047D00000400240004402402E2E5C2E2E5C2E2E05
:1047E0005C2E2E5C2E2E5C2E2E5C647269766572B9
:1047F000735C686333325F6C6C5F64726976657298
:104800005C7372635C686333325F6C6C5F746D728F
:10481000302E63000146002009B9C01E06E00022C8
:104820000A604A608A604FF6FF728A817047000012
:104830002DE9FC4704460F4690469946DDE90AA556
:104840004FF0FF361048844208D01048844205D00B
:104850000F48844202D00F48844208D14B4642465A
:1048600039462046CDE900A500F016F806463EB1CF
:104870004B46424639462046009500F0EFF8064682
:104880003046BDE8FC87000000D0014000D4014064
:1048900000100240001402402DE9FF4F2DED088B5F
:1048A00087B006466FF00200039000BF574886426B
:1048B00008D05748864205D05648864202D056480E
:1048C000864200D104E040F20F2154A0FCF722FF01
:1048D00000BF109CDDF84490129800287DD01C98F1
:1048E00000287AD0002C78D0B9F1000F75D0F0688C
:1048F00000F4004008B1012000E0002083464FEAA8
:10490000C900CBF102014843B4FBF0F0A0F1010A69
:10491000BAF1FF0F73D8002210461346DBF10202F2
:1049200060EB030008234FF0000CA2FB031E00FB0A
:1049300003E002FB0C0360464FF0010C1AEB0C0C79
:1049400040F10000A1FB0C2E03FB0CE301FB003146
:104950000020A2FB097301FB093102FB00184FF490
:1049600080710022A7FB010308FB013107FB021144
:1049700022460023CDE90001FBF7B8FC8021451A4F
:104980007F2D3CD81298C0F800A01C9805601D9897
:1049900098B349004FF0000C3A46A2FB010E08FB09
:1049A00001E107FB0C18074600208022AA1840EB03
:1049B00000030021A2FB040C03FB04C302FB013132
:1049C000CDE9040138464146FBF7E0FC41EC1A0B07
:1049D000DDE90401FBF7DAFC00E010E053EC1A2BF0
:1049E000FBF71EFDFBF7DEFC00EE100AF7EE000AF7
:1049F00030EE608A1D9880ED008A002003900398B5
:104A000007B0BDEC088B04B0BDE8F08F00D00140CA
:104A100000D4014000100240001402402E2E5C2EF3
:104A20002E5C2E2E5C2E2E5C2E2E5C2E2E5C647246
:104A300069766572735C686333325F6C6C5F647255
:104A4000697665725C7372635C686333325F6C6C49
:104A50005F75736172742E63000000002DE9FF4FD3
:104A60002DED088B81B004469B466FF0020000904C
:104A700000BF3F48844208D03E48844205D03E48AB
:104A8000844202D03D48844200D104E040F25B11F0
:104A90003BA0FCF73FFE00BF0A9F0B9DBBF1000F40
:104AA0005ED0002F5CD0002D5AD0E06800F40040AA
:104AB00008B1012000E000208046E800C8F10201B2
:104AC000484307EB87014900B1FBF0F0401D0A2184
:104AD000B0FBF1F0461EFF2E42D8CBF800601698CE
:104AE000E0B3002210461346D8F1020260EB030047
:104AF00008234FF0000CA2FB031E00FB03E002FBA7
:104B00000C0260464FF0010C16EB0C0C40F100005B
:104B10000B46A3FB0C1E02FB0CE203FB002200234E
:104B2000A1FB059C02FB05C201FB032A4846514636
:104B3000FBF72CFC41EC1A0B3846FBF71AFC53EC44
:104B40001A2BFBF76DFCFBF72DFC00EE100AF7EEBD
:104B5000000A30EE608A169880ED008A00200090EE
:104B6000009801B0BDEC088B04B0BDE8F08F0000E8
:104B700000D0014000D40140001002400014024067
:104B80002E2E5C2E2E5C2E2E5C2E2E5C2E2E5C2E5F
:104B90002E5C647269766572735C686333325F6C35
:104BA0006C5F6472697665725C7372635C686333B0
:104BB000325F6C6C5F75736172742E63000000006D
:104BC00000B58DB0684600F0FDFB032001904FF466
:104BD000E13003904FF400400790002269461F48DF
:104BE00000F0E6FA20B10120FBF704FF00BFFEE76A
:104BF0000020ADF82E004FF48B70ADF82C00184853
:104C00000C900F210BA8FDF773FC0120ADF82E00CE
:104C100040F21710ADF82C0012480C900F210BA891
:104C2000FDF766FC0220ADF82E004FF48C70ADF855
:104C30002C000D480C900F210BA8FDF759FC032008
:104C4000ADF82E0040F21910ADF82C0007480C907A
:104C50000F210BA8FDF74CFC0DB000BD00D00140AA
:104C6000E14F0000055000007D510000615100003F
:104C700070B504460D4600BF1848844208D0184855
:104C8000844205D01748844202D01748844200D19C
:104C900004E040F2DF4115A0FCF73CFD00BF00BF7F
:104CA0002DB1224828432149884200D104E04FF425
:104CB0009C610EA0FCF72EFD00BF05F00B0028B193
:104CC000E06805F00B0140EA0140E06005F4807007
:104CD00018B1E06840F48010E06070BD00D0014081
:104CE00000D4014000100240001402402E2E5C2E21
:104CF0002E5C2E2E5C2E2E5C2E2E5C2E2E5C647274
:104D000069766572735C686333325F6C6C5F647282
:104D1000697665725C7372635C686333325F6C6C76
:104D20005F75736172742E6300000000EB01010077
:104D30002DE9F04104460D46164600BF1B4884424B
:104D400008D01B48844205D01A48844202D01A4831
:104D5000844200D104E04FF4966118A0FCF7DAFC1D
:104D600000BF00BF0EB1012E00D104E040F2B141FE
:104D700012A0FCF7CFFC00BF00BF25B145F0EF004B
:104D8000EF2800D104E040F2B2410CA0FCF7C2FCD5
:104D900000BFAFB247B1012E03D1E0683843E060F5
:104DA00002E0E068B843E060BDE8F08100D0014077
:104DB00000D4014000100240001402402E2E5C2E50
:104DC0002E5C2E2E5C2E2E5C2E2E5C2E2E5C6472A3
:104DD00069766572735C686333325F6C6C5F6472B2
:104DE000697665725C7372635C686333325F6C6CA6
:104DF0005F75736172742E63000000000449096AD4
:104E0000C1F302120349096821FA02F07047000059
:104E1000004005400080FF1F70B504460D4600BFEE
:104E20001348844208D01348844205D01248844273
:104E300002D01248844200D104E040F2C64110A0E2
:104E4000FCF768FC00BF00BF2DB11D4828431C497A
:104E5000884200D104E040F2C74109A0FCF75AFCA7
:104E600000BF2068284008B1012070BD0020FCE789
:104E700000D0014000D40140001002400014024064
:104E80002E2E5C2E2E5C2E2E5C2E2E5C2E2E5C2E5C
:104E90002E5C647269766572735C686333325F6C32
:104EA0006C5F6472697665725C7372635C686333AD
:104EB000325F6C6C5F75736172742E63000000006A
:104EC000EB0101002DE9F041044600BF1048844287
:104ED00008D01048844205D00F48844202D00F48C1
:104EE000844200D104E04FF451710DA0FCF712FC94
:104EF00000BFFFF783FF0746A0698007410F01202D
:104F000000FA01F5B7FBF5F63046BDE8F081000088
:104F100000D0014000D401400010024000140240C3
:104F20002E2E5C2E2E5C2E2E5C2E2E5C2E2E5C2EBB
:104F30002E5C647269766572735C686333325F6C91
:104F40006C5F6472697665725C7372635C6863330C
:104F5000325F6C6C5F75736172742E6300000000C9
:104F600010B5044600BF0A48844208D0094884426C
:104F700005D00948844202D00848844200D104E0A8
:104F800040F2056106A0FCF7C5FB00BFE08810BD3C
:104F900000D0014000D40140001002400014024043
:104FA0002E2E5C2E2E5C2E2E5C2E2E5C2E2E5C2E3B
:104FB0002E5C647269766572735C686333325F6C11
:104FC0006C5F6472697665725C7372635C6863338C
:104FD000325F6C6C5F75736172742E630000000049
:104FE00010B503210648FFF717FF012802D1044836
:104FF000FFF7B6FF0B210248FFF73AFE10BD000095
:1050000000D0014008B508480068401C0649086007
:105010000648FFF7A5FFC0B2009001226946044888
:10502000FBF71FFE08BD00002080FF1F00D00140DD
:105030005C5300202DE9FF4704460F46164600202A
:1050400003904FF6FF70029000BF07B104E040F2FA
:1050500042612FA0FCF75EFB00BF00BF3C488442CA
:1050600008D03C48844205D03B48844202D03B48AB
:10507000844200D104E040F2436125A0FCF74AFBE2
:1050800000BF2046FFF71EFF8146E06800F08078F1
:10509000B8F1000F1BD1606900F02008B8F1000FD3
:1050A0000AD102A803AB3A464946CDE9000620469C
:1050B000FFF7BEFB054614E002A803AB3A4649469B
:1050C000CDE900062046FEF7CBFE054609E002A822
:1050D00003AB3A464946CDE900062046FCF78AF97B
:1050E000054685B90399A06861F30F20A060029876
:1050F0007F2808D8E06840F00050E0600299A0687E
:1051000061F30600A060284604B0BDE8F087000007
:105110002E2E5C2E2E5C2E2E5C2E2E5C2E2E5C2EC9
:105120002E5C647269766572735C686333325F6C9F
:105130006C5F6472697665725C7372635C6863331A
:10514000325F6C6C5F75736172742E6300000000D7
:1051500000D0014000D40140001002400014024081
:1051600010B50120034908700022C8210248FFF74A
:10517000DFFD10BD0880FF1F00D0014008B50A48C0
:10518000FBF70AFD50B9012269460748FBF71CFDF1
:105190009DF80010054800F011FA04E001224021BA
:1051A0000248FFF7C5FD08BD5C53002000D0014058
:1051B0002DE9F04705460C4690466FF0020A002C98
:1051C00073D000BF6B48854208D06B48854205D03C
:1051D0006A48854202D06A48854200D104E040F224
:1051E000274168A0FCF796FA00BF00BF2068B0F521
:1051F000805F01D0206800B904E04FF4856161A0B0
:10520000FCF788FA00BF00BFA068B0F5006F01D0BE
:10521000A06800B904E040F229415AA0FCF77AFAEC
:1052200000BF00BFA069B0F5C06F05D0A069B0F5A0
:10523000806F01D0A06900B904E040F22A4151A07A
:10524000FCF768FA00BF00BF206918B12069B0F50B
:10525000805F00D104E040F22B414AA0FCF75AFAEB
:1052600000BF00BF606918B16069B0F5005F00D190
:1052700004E040F22C4143A0FCF74CFA00BF00BF11
:10528000E069B0F5004F01D0E06900B904E040F2F8
:105290002D413CA0FCF73EFA00BF00BF206AB0F1F0
:1052A000805F01D0206A08B905E060E040F22E413D
:1052B00034A0FCF72FFA00BF00BF606A18B1606A23
:1052C000B0F1004F00D104E040F22F412DA0FCF7D7
:1052D00021FA00BF00BFA06AB0F5007F03D0A06A2A
:1052E000B0F5807F00D104E04FF4866125A0FCF783
:1052F00011FA00BF2169A0690843216A0843E169E6
:105300000843616A40EA0106A168206808436169B0
:1053100040EA0107A06AB0F5007F02D14FF40070A7
:1053200000E000208146EE602F61C5F814902068EF
:10533000D8B900BF606840B16068012805D06068D6
:10534000022802D06068032800D104E040F23E4108
:105350000CA0FCF7DFF900BF6068A8614246284650
:10536000E168FFF767FE824601E04FF0000A504611
:10537000BDE8F08700D0014000D401400010024099
:10538000001402402E2E5C2E2E5C2E2E5C2E2E5CE7
:105390002E2E5C2E2E5C647269766572735C686377
:1053A00033325F6C6C5F6472697665725C737263D2
:1053B0005C686333325F6C6C5F75736172742E630B
:1053C0000000000001466FF0020089B100220A606F
:1053D0004A608A604FF41652CA6000220A614A612C
:1053E0008A61CA610A62C2074A62D20D8A620020DB
:1053F000704700002DE9F04704460E4690469A4655
:105400006FF0020900BF2348844208D0224884423A
:1054100005D02248844202D02148844200D104E0D1
:1054200040F28C611FA0FCF775F900BF7EB3B8F1A4
:10543000000F2CD0E06800F4805717B1B7F5805FFB
:1054400025D1002516E0534601228021204600F098
:1054500049F88146B9F1000F00D00DE027B9715D20
:10546000204600F0ABF804E036F81510204600F0B6
:10547000A5F86D1C4545E6D300BFB9F1000F06D174
:10548000534601224021204600F02CF88146484630
:10549000BDE8F08700D0014000D401400010024078
:1054A000001402402E2E5C2E2E5C2E2E5C2E2E5CC6
:1054B0002E2E5C2E2E5C647269766572735C686356
:1054C00033325F6C6C5F6472697665725C737263B1
:1054D0005C686333325F6C6C5F75736172742E63EA
:1054E000000000002DE9F84304460D4617461E460D
:1054F0004FF000080020009000BF1B48844208D0F5
:105500001A48844205D01A48844202D0194884427D
:1055100000D104E04FF4997117A0FCF7FBF800BF2D
:1055200000BF2DB1244828432349884200D104E01C
:1055300040F2331110A0FCF7EDF800BF0AE000982C
:10554000B04204D9701C10B16FF0070808E0009851
:10555000401C009029462046FFF75EFCB842EED181
:1055600000BF4046BDE8F88300D0014000D40140B0
:1055700000100240001402402E2E5C2E2E5C2E2EB7
:105580005C2E2E5C2E2E5C2E2E5C6472697665720B
:10559000735C686333325F6C6C5F647269766572EA
:1055A0005C7372635C686333325F6C6C5F757361EC
:1055B00072742E6300000000EB01010070B5044618
:1055C0000D46261D00BF1048844208D00F48844273
:1055D00005D00F48844202D00E48844200D104E036
:1055E00040F216610CA0FCF795F800BF00BFB5F5BE
:1055F000007F00D204E040F2176107A0FCF78AF8B0
:1056000000BF358070BD000000D0014000D40140D3
:1056100000100240001402402E2E5C2E2E5C2E2E16
:105620005C2E2E5C2E2E5C2E2E5C6472697665726A
:10563000735C686333325F6C6C5F64726976657249
:105640005C7372635C686333325F6C6C5F7573614B
:1056500072742E630000000010B504462046FCF76B
:105660005BF810BD70B504466FF0020514B16068B8
:1056700080470025284670BD002807DB00F01F0288
:1056800001219140024A430942F82310704700006B
:1056900080E200E000280DDB00BF00BF00F01F0229
:1056A000012191404209920002F1E022C2F800116A
:1056B00000BF00BF7047000010B5002804DB0A07D8
:1056C000130E054A135406E00A07140E034A00F0AD
:1056D0000F031B1FD45410BD00E400E018ED00E0E0
:1056E00002E008C8121F08C1002AFAD170477047AB
:1056F000002001E001C1121F002AFBD170471CB538
:10570000024600212FE013780DF80130521C1DF8DD
:105710000130302B09DB1DF80130392B05DC1DF879
:105720000130303BDBB20DF801301DF80130412B68
:1057300009DB1DF80130462B05DC1DF80130373B35
:10574000DBB20DF801301DF80130612B09DB1DF8CB
:105750000130662B05DC1DF80130573BDBB20DF83C
:1057600001304B1CD9B20829CDDB9DF801309DF8E2
:10577000004003EB0413DBB28DF800309DF80330DA
:105780009DF8024003EB0413DBB28DF801309DF865
:1057900005309DF8044003EB0413DBB28DF80230B2
:1057A0009DF807309DF8064003EB0413DBB28DF83B
:1057B00003309DF800301B069DF8014003EB0443C5
:1057C0009DF8024003EB04239DF8034018191CBD0B
:1057D00030B50346002409E018780D78A84201D0BE
:1057E000012030BD5B1C491C601C84B29442F3DB79
:1057F0000020F6E730B502461346002413E0D8B285
:1058000000F00F001B09002804DB092802DC00F16E
:1058100030050D700A2804DB0F2802DC00F1570563
:105820000D70491E641C082CE9DB30BDACB000BF14
:10583000182027904FF4B46900BF00BF1422F6A1CE
:1058400021A8FAF784FDF9A1D1E900208968CDE902
:105850001E202091F8A207CA1BAB07C31C22F9A186
:1058600014A8FAF774FDFEA2D2E900109268CDE9FF
:10587000120211910020FD490860FD490860FD49B0
:105880000860C720FDF7A4FAFAF7A6FFFBF79CF81B
:10589000FBF77AF921224FF400610020FCF7C4FCE9
:1058A0002022D1010020FCF7BFFC01210806FCF7F3
:1058B0008DFA4FF4FA72F049F048FBF776F9FFF7EA
:1058C0007FF901222C21EE48FFF732FAFEF7AAFDFC
:1058D0000121EC48FEF75AFF1420EB4908704FF401
:1058E0007A70EA4908600120FBF716FF8320FDF774
:1058F000B7FA4EF68070ADF8A80045F25550ADF8F5
:10590000AA002AAA01210846FDF748FE0746012001
:10591000FBF702FF2AAA01210846FDF73FFE0746D2
:105920000A20FBF7F9FEFCF7E5F8D94AD94900202F
:10593000FCF7E6F80022D749091D1046FCF7E0F80D
:10594000D5490020FBF7F4FF0746D44AD149183166
:105950000020FCF7D5F848F20302CE493031002090
:10596000FCF7CEF848F20302CA4934310020FCF7B4
:10597000C7F8CB4AC849FC310020FCF7C1F80A201F
:10598000FBF7CAFE6420FBF7C7FE4EF68070ADF849
:10599000A8004AF6AA20ADF8AA002AAA01210846C2
:1059A000FDF7FCFD07466420FBF7B6FEBA49091F68
:1059B0000020FBF7BDFF074688E1B34800780028C8
:1059C0007DD11420B04908704FF47E50ADF8A0008E
:1059D00028AA03210020FDF7E1FD07464FF6FF70DE
:1059E00000EA2746BDB228AA03210020FDF7D6FD14
:1059F00007464FF6FF7000EA274A1FFA87FB564515
:105A000016D12798864213D01F2E11DAB04608F01F
:105A1000FF0848F4004842469E4930310020FCF718
:105A20006FF89F4A9C49FC310020FCF769F82796E3
:105A30005D4522D14D4520D0B5F5AF6F02DBB5F500
:105A4000E16F07DD40F6FC00854216DB40F68C2056
:105A5000854212DCA5F108004FF47A7100FB01F8D1
:105A600042468C4918310020FCF74AF88C4A8A4992
:105A7000FC310020FCF744F8A9467C4800687C49CA
:105A8000096888429CD179480068002817D0774877
:105A900000681F2811D07548006818280DD000BF75
:105AA00080217748FFF7B8F90028F9D04FF4802318
:105AB0000C2211A97248FFF79DFC002408E0F9E0D0
:105AC0006E480068005D04A9085500BF601C84B2E0
:105AD000684800688442F3D368490A2208681EA90E
